:100000007FC300000C94BB160C9487160C945316F7
:100010000C941F160C94EB150C94B7150C948315C7
:100020000C944F159EC300009CC300009AC30000AF
:100030000C94F81E96C3000094C3000092C3000005
:1000400090C300008EC300008CC300008AC3000070
:1000500088C3000086C3000084C300000C9405150B
:1000600080C300000C94CF140C94A5147AC3000034
:1000700078C3000076C3000074C3000072C30000A0
:1000800070C300006EC300006CC300006AC30000B0
:1000900068C3000066C3000064C3000062C30000C0
:1000A00060C300005EC300005CC300005AC30000D0
:1000B00058C3000056C3000054C3000052C30000E0
:1000C00050C300004EC300004CC300004AC30000F0
:1000D00048C3000046C3000044C3000042C3000000
:1000E00040C300007374645F6D7367732F54696D50
:1000F00065006364373136366337346335353263D0
:10010000333131666263633266653561376263320B
:10011000383900726F7373657269616C5F6D7367F4
:10012000732F546F706963496E666F003061643578
:100130003166383866633434383932663863313082
:1001400036383430373736343630303500726F73E6
:1001500073657269616C5F6D7367732F4C6F6700B5
:10016000313161626437333163323539333332369A
:100170003163643631383362643132643632393552
:1001800000726F7373657269616C5F6D7367732F53
:1001900052657175657374506172616D00396630B6
:1001A00065393862646136353938313938366464D6
:1001B00066353361666137613430653439006765AF
:1001C0006F6D657472795F6D7367732F56656374B5
:1001D0006F7233003461383432623635663431330D
:1001E0003038346463326231306662343834656189
:1001F000376631370067656F6D657472795F6D734F
:1002000067732F54776973740039663139356638EE
:100210003831323436666466613237393864316475
:100220003365656263613834610000000A0B0209BE
:100230000C0D0E0807030401000000000000000080
:1002400000000000000000000000000000000000AE
:10025000000000000000121110000000000000006B
:10026000000000000000000000000000000000008E
:1002700000002200250028002B002E003100340051
:1002800002010000050108010B010000210024000B
:1002900027002A002D003000330001010000040176
:1002A00007010A01050505050705080808080202F7
:1002B00002020A0A08080404040401010101010100
:1002C00001010303030303030303040707070C0CE3
:1002D0000C0C0C0C0C0C02020202060606060606AA
:1002E00006060B0B0B0B0B0B0B0B0102102020084F
:1002F0000810204010204080020102010804020181
:1003000001020408102040808040201008040201EF
:100310008004020180402010080402010804020148
:1003200001020408102040800102040810204080CF
:10033000CF93DF9300D000D000D01F92CDB7DEB7AF
:10034000E0912E03F0912F03F08010E000E0FF20F9
:1003500029F00580F681E02D008111810E942C1783
:100360000E9422176C018091210390912203C816EC
:10037000D90608F07EC00E94B51BD0922203C0921D
:1003800021030E9487190091490310914A031A869C
:10039000198680E06801B1E1CB0ED11C0FB6F8944C
:1003A0000F92F801F28CFF2009F41AC1448D442306
:1003B000C1F050E086819781840F951F97838683D3
:1003C000248135818217930720F080819181978362
:1003D0008683D80116966D917C91CE0101960E947C
:1003E000C024FA94F801F28E8085882339F0C80180
:1003F00008960E94811781110E94C1180F900FBEAC
:10040000D980D7FCC0CF0C811D81D8011A968D915F
:100410009C91892B21F0C80102960E945D170E94D1
:1004200022177C018091210390912203E816F9069E
:1004300010F40E94B51BF0922203E0922103B9E070
:10044000BD1508F4A0CFED2DDD0CFF0BD8015296A1
:100450009C918827E15DFD4F8F4F0C94AF23B30231
:10046000B302B302EB02D602E502B302B302EB021F
:10047000D602D0922203C0922103FF2099F1C01628
:10048000D106C0F10E948719E0912E03F0912F034D
:100490000580F681E02DE680F780C70102960E9474
:1004A0005D17D70152968C91529782FF17C01C9608
:1004B0006D917C91600F711F9801A601C7010E9488
:1004C0003318882321F0B801C7010E948F1BD70180
:1004D0005096ED91FC91C701199555CF8E7FF7018C
:1004E000828BF5CFE0912C03F0912D038081BB240A
:1004F000B3948111B12CE0904903F0904A030FB6F8
:10050000F8940F92F701858D8F3F09F4158ED7016E
:100510005E968C915E978F3F11F45E961C920F90C1
:100520000FBEF701828D811114C060911A03709182
:100530001B03645F7F4FC70141960E943D17C801AE
:100540008C199D09BB2011F08FEF9FEF6B2D0E943E
:100550005C18C7010E94BD170E948719811113CF33
:100560000E94C11810CF9160F801928BCA80DB8085
:10057000648575856C0D7D1D9601A701C8010E94DB
:100580003318882309F4FFCED8015096ED91FC91E1
:10059000C8011995F801828982FFF5CE64857585B9
:1005A0006C0D7D1DC8010E948F1BEDCE9160F8017E
:1005B000928B6A817B81758764876E0D7F1D9701A1
:1005C000A701C8010E943318DECE91FD04C0C80106
:1005D0000E94E81DD8CE9E7FD80152969C93D3CE20
:1005E00029853A85232B19F40F900FBEA9CE8111CE
:1005F00009C080914D038E8380914B0390914C03F1
:1006000098878F830F900FBE0E942C170FB6F89417
:100610000F92D8015D968C915D978F3F11F45D9696
:100620001C92F801868D8F3F09F4168E0F900FBE35
:10063000BE01675F7F4FCE0106960E94EF168111C3
:1006400025C0C8010E9432178823D1F0E984FA84BA
:1006500060911A0370911B03645F7F4FC6010E9473
:10066000FD1761E0C7010E945C18C8010E94BD1718
:100670000E948719811102C00E94C11881E08ECEAC
:10068000C8010E94BD170E948719F8CFC8010E94B7
:10069000BD170E948719C8010E943217882371F381
:1006A0004FCE80911D03811108C080917F0382305D
:1006B00010F00E94C118DAD1F4CF0FB6F8940F925F
:1006C000E0916003F0916103C681D781CE0102966B
:1006D0000E945D178091A60381508093A6038091AC
:1006E0001D03815080931D030F900FBE8F89988D3D
:1006F0000E94E81DCE010E94E81DD3CFFA1ED6212C
:1007000011241FBECFEFD1E2DEBFCDBF00E00CBF92
:1007100013E0A0E0B2E0E2ECF9E400E00BBF02C0BD
:1007200007900D92AA31B107D9F729E0AAE1B3E009
:1007300001C01D92A436B207E1F713E0CFE7D3E082
:1007400000E006C021970109802FFE010E94AF231F
:10075000CE37D10780E00807A9F70E9491200C94BA
:10076000D0244ECC0895CF92DF92EF92FF92CF9398
:10077000DF93EC016A017B01E889F98982E08083DB
:10078000C11481EED806E104F104A1F060E079E043
:100790008DE390E0A70196010E948D23215031093D
:1007A000410951095695479537952795211580E1BF
:1007B000380798F0E889F989108260E874E88EE1DA
:1007C00090E0A70196010E948D2321503109410933
:1007D00051095695479537952795EC85FD853083CA
:1007E000EE85FF852083188EEC89FD8986E0808365
:1007F000EA89FB89808180618083EA89FB89808125
:1008000088608083EA89FB89808180688083EA89A7
:10081000FB8980818F7D8083DF91CF91FF90EF9066
:10082000DF90CF900895CF93DF9300D01F921F9257
:10083000CDB7DEB72EE232E03A83298323E02B8363
:100840007D836C83DC01ED91FC910190F081E02DC2
:10085000AE014F5F5F4F67E070E019950F900F900A
:100860000F900F900F90DF91CF910895AF92BF92AC
:10087000CF92DF92EF92FF920F931F93CF93DF936C
:100880006C017B018B01040F151FEB015E01AE189B
:10089000BF08C017D10759F06991D601ED91FC91BD
:1008A0000190F081E02DC6011995892B79F7C501DA
:1008B000DF91CF911F910F91FF90EF90DF90CF903C
:1008C000BF90AF900895FC01538D448D252F30E0EB
:1008D000842F90E0821B930B541710F0CF9608954D
:1008E00001970895FC01918D828D981761F0A28D7A
:1008F000AE0FBF2FB11D5D968C91928D9F5F9F7340
:10090000928F90E008958FEF9FEF0895FC01918DF5
:10091000828D981731F0828DE80FF11D858D90E062
:1009200008958FEF9FEF0895FC01918D228D892FFF
:1009300090E0805C9F4F821B91098F7399270895E7
:1009400087EA93E0F1DF21E0892B09F420E0822F90
:100950000895FC01A48DA80FB92FB11DA35ABF4F54
:100960002C91848D90E001968F739927848FA689AE
:10097000B7892C93A089B1898C91837080648C9302
:10098000938D848D981306C00288F389E02D8081B1
:100990008F7D80830895EF92FF920F931F93CF93E3
:1009A000DF93EC0181E0888F9B8D8C8D98131AC0AA
:1009B000E889F989808185FF15C09FB7F894EE8991
:1009C000FF896083E889F9898081837080648083EE
:1009D0009FBF81E090E0DF91CF911F910F91FF9039
:1009E000EF900895F62E0B8D10E00F5F1F4F0F73E1
:1009F0001127E02E8C8D8E110BC00FB607FCFACF9D
:100A0000E889F989808185FFF5CFCE01A2DFF2CF99
:100A1000EB8DEC0FFD2FF11DE35AFF4FF0829FB7D6
:100A2000F8940B8FEA89FB8980818062D0CFCF93C5
:100A3000DF93EC01888D8823B1F0AA89BB89E8890E
:100A4000F9898C9185FD03C0808186FD0CC00FB6AD
:100A500007FCF7CF8C9185FFF2CF808185FFEDCF2A
:100A6000CE0177DFEACFDF91CF91089580E090E06B
:100A7000892B21F065DF81110E94000080E090E069
:100A8000892B49F080E090E0892B29F00E9400003A
:100A900081110E94000080E090E0892B49F080E005
:100AA00090E0892B29F00E94000081110E94000033
:100AB00080E090E0892B49F080E090E0892B29F0DC
:100AC0000E94000081110C9400000895282F30E04E
:100AD000F901E65DFD4F9491F901E651FD4F449116
:100AE0002C553D4FF9012491222309F435C0992357
:100AF00011F191509231F8F4E92FF0E08827EC578A
:100B0000FA4F8F4F0C94AF23B505B9059605AD0587
:100B1000B1059B05BC05C205C605CC05D005D405AD
:100B2000DA05DE059B05E205E805EC05809180000D
:100B30008F7780938000E22FF0E0EE0FFF1FE059E7
:100B4000FD4FA591B4918FB7F894EC91611148C015
:100B500040954E234C938FBF0895809180008F7DE8
:100B6000E8CF80918000877FE4CF84B58F7784BD04
:100B7000E2CF84B58F7DFBCF8091B0008F778093DB
:100B8000B000D9CF8091B0008F7DF9CF80919000D7
:100B90008F7780939000CFCF809190008F7DF9CF99
:100BA00080919000877FF5CF8091A0008F77809310
:100BB000A000C1CF8091A0008F7DF9CF8091A000CF
:100BC000877FF5CF809120018F7780932001B3CF6D
:100BD000809120018F7DF9CF80912001877FF5CF13
:100BE0004E2BB8CF582F282F30E0F901E651FD4F9A
:100BF0004491F901EC55FD4F8491882399F090E0E0
:100C0000880F991FFC01E657FD4FA591B491FC0197
:100C1000E059FD4F859194918FB7F894EC91E42BB6
:100C2000EC938FBF6115710519F460E0852F4ECFED
:100C30006F3F710511F461E0F9CFF901E65DFD4FF9
:100C4000E491E150E23108F0B0C0F0E08827E45DC3
:100C5000F94F8F4F0C94AF233E06430648065206C9
:100C60005C06D50666066E06760680068A0694063B
:100C7000A306AD06D506B706C106CB0684B58068C7
:100C800084BD67BD089584B5806284BD68BD089544
:100C900080918000806880938000709389006093C9
:100CA0008800089580918000806280938000709316
:100CB0008B0060938A000895809180008860809303
:100CC000800070938D0060938C0008958091B00037
:100CD00080688093B0006093B30008958091B00065
:100CE00080628093B0006093B4000895809190007A
:100CF00080688093900070939900609398000895A5
:100D00008091900080628093900070939B0060932C
:100D10009A0008958091900088608093900070936D
:100D20009D0060939C0008958091A000806880934E
:100D3000A0008091A0008F7B8093A0007093A900F9
:100D40006093A80008958091A00080628093A00025
:100D50007093AB006093AA0008958091A000886012
:100D60008093A0007093AD006093AC0008958091D3
:100D700020018068809320017093290160932801ED
:100D800008958091200180628093200170932B014F
:100D900060932A010895809120018860809320014A
:100DA00070932D0160932C010895603871050CF04B
:100DB00042CF3BCFCF93DF93EC0170E060E08A81BC
:100DC00011DF70E060E08981DF91CF910BCF2FB709
:100DD000F894609128037091290380912A039091DF
:100DE0002B032FBF0895E0915003F09151038081B0
:100DF000811107C08FEF9FEF9093450380934403C9
:100E00000895E0915003F09151030580F681E02DA3
:100E10000680F781E02D82819381EECF8E579B4F24
:100E2000FC018081089589E092E0089585EF91E0CA
:100E30000895FC0187A190A50895AF92BF92CF922B
:100E4000DF92EF92FF920F931F93CF93DF9364365D
:100E500071054CF0FC01EE57FB4F2081C12CD12CC9
:100E6000222309F460C0DA016B01EC01BC01655E6C
:100E70007D4FED91FC910190F081E02DCA01199513
:100E80008C017E012CEEE21A2DEFF20A2FEFD70132
:100E90002C93FE01EB5EFD4F2EEF20833196808375
:100EA000319690833196890F809580833196C082E8
:100EB0001696DC9245E050E030E020E0C80107964D
:100EC0004817590730F46191260F311D4F5F5F4F6E
:100ED000F7CF085F1F4F8C0F9D1FFC01EC5EFD4F8D
:100EE000209520830130B2E01B07A8F46801570168
:100EF000C5018E199F0980179107ACF48A819B81E7
:100F0000F50161915F01DC01ED91FC910190F081AF
:100F1000E02D1995EDCF68E872E0CE0184DCCC2499
:100F2000CA94DD24DA94C601DF91CF911F910F910D
:100F3000FF90EF90DF90CF90BF90AF9008950F9308
:100F40001F93CF93DF9300D000D000D01F92CDB776
:100F5000DEB78C0182E292E09A8389831B821C8235
:100F60001D821E821F82188619861A86D801ED916D
:100F7000FC910190F081E02DAE014F5F5F4F6AE080
:100F800070E0C801199523DFF801608771878287B7
:100F900093872A960FB6F894DEBF0FBECDBFDF91C0
:100FA000CF911F910F910895CF92DF92EF92FF9210
:100FB000DC011D921D921D921C921397FB0130E0E3
:100FC00020E0419150E0022E02C0440F551F0A94C8
:100FD000E2F7052E000C660B770BCD90DD90ED90BF
:100FE000FC9013974C295D296E297F294D935D93C1
:100FF0006D937C931397285F3F4F2032310509F79B
:10100000FF90EF90DF90CF900895FC0140835183D3
:1010100012821382089584ED91E008958EEB91E0A1
:101020000895CF93DF93DC0116968D919C911797CD
:10103000FB0116964D915C91179714962D913C915A
:10104000159745395105CCF46491240F351FE901FA
:10105000688316962D913C91179731961496CD91F1
:10106000DC911597C20FD31F48812F5F3F4F179612
:101070003C932E9316974111DCCF16962D913C91FF
:1010800017972539310534F022E030E019963C936A
:101090002E93189714962D913C91820F931FDF91F8
:1010A000CF910895BECF4111BCCFCB0108958DE9FA
:1010B00091E0089581E891E0089580E691E0089537
:1010C0008DE491E008954F925F926F927F928F929C
:1010D0009F92AF92BF92EF92FF920F931F93CF9385
:1010E000DF9300D01F92CDB7DEB77C018B01FB01EF
:1010F0008191BF01F7018283CE01019655DF89817D
:101100009A81AB81BC814C015D01F5E08F0E911C91
:10111000A11CB11CA8014C5F5F4FFA0125E030E033
:101120002901712C612C481459046A047B0428F4A9
:10113000618161932F5F3F4FF3CFF801E80FF91FF3
:101140001482F7015483438305960F900F900F90FC
:101150000F90DF91CF911F910F91FF90EF90BF9073
:10116000AF909F908F907F906F905F904F90089579
:101170008CE291E0089583E191E008954F925F92AF
:101180006F927F928F929F92AF92BF92CF92DF9297
:10119000EF92FF920F931F93CF93DF93CDB7DEB7FC
:1011A0002C970FB6F894DEBF0FBECDBF7C018B012C
:1011B000DB018C9190E0F7019383828311962C914F
:1011C000922B938382836E5F7F4FCE010196ECDE7C
:1011D00089809A80AB80BC8024013501F6E04F0EF7
:1011E000511C611C711C98012B5F3F4FF90186E077
:1011F00090E0AC0170E060E04415550566057705A8
:1012000020F4418141930196F4CFB4016A5F7F4F8E
:10121000F801E80DF91D1582D70115963C932E9320
:101220001497600F711FCE010596BEDEBAE08B0EDB
:10123000911C4D805E806F807884C401092C000C65
:10124000AA0BBB0B5C016D01A40CB51CC61CD71C02
:10125000F801E80DF91DAF01401B510B70E060E093
:101260004A155B056C057D0538F42191AF014250AC
:101270005109DA012C93EFCF480C591CB801640DC9
:10128000751DFB0131971082C4010197800F911FDA
:10129000F70197838683CE01099686DE92012C5F43
:1012A0003F4F89849A84AB84BC84A901032E000C2F
:1012B000660B770B480D591D6A1D7B1DF801E20F67
:1012C000F31FCF01801B910BB0E0A0E084179507BE
:1012D000A607B70728F48191DF0112978C93F1CF0D
:1012E000C901880D991DF801E80FF91FDF01119759
:1012F0001C9221503109020F131FD70119961C931C
:101300000E9318972181428150E070E060E0BA01AD
:1013100055274427522B2081422B2381722BF70122
:10132000428753876487758704962C960FB6F89486
:10133000DEBF0FBECDBFDF91CF911F910F91FF9008
:10134000EF90DF90CF90BF90AF909F908F907F9065
:101350006F905F904F90089582EF90E0089584EE33
:1013600090E00895FC01DB014C9150E070E060E0FA
:10137000428353836483758311968C911197582B04
:10138000428353836483758312968C911297682BE2
:10139000428353836483758313968C911397782BC0
:1013A000428353836483758314964C91149750E061
:1013B00070E060E0468357836087718715968C9153
:1013C0001597582B468357836087718716968C91A3
:1013D0001697682B468357836087718717968C9181
:1013E000782B468357836087718788E090E0089563
:1013F000DC01FB0112968C911297808313968C91DD
:101400001397818314968C911497828315968C91EF
:101410001597838316968C911697848317968C91D3
:101420001797858318968C911897868319968C91B7
:10143000878388E090E00895CF92DF92EF92FF9249
:101440000F931F93FC01DB01C3800C2D10E030E0F3
:1014500020E045E036952795179507954A95D1F7F1
:101460000D931D932D933C9313978481C82ED12CFB
:10147000F12CE12C53E0CC0CDD1CEE1CFF1C5A952A
:10148000D1F7C02AD12AE22AF32ACD92DD92ED9239
:10149000FC9213978581082F10E030E020E06BE08C
:1014A000000F111F221F331F6A95D1F70C291D2928
:1014B0002E293F290D931D932D933C93139746811D
:1014C00050E070E060E083E1440F551F661F771F16
:1014D0008A95D1F74427552768777727042B152B52
:1014E000262B372B0D931D932D933C9313974781F8
:1014F00050E070E060E094E0440F551F661F771FD6
:101500009A95D1F7407F577066277727C680D12CF0
:10151000F12CE12C84E0F694E794D794C7948A9553
:10152000D1F74C295D296E297F29411551056105A7
:101530007105A1F0405853406109710997E1440FCA
:10154000551F661F771F9A95D1F7402B512B622BA1
:10155000732B4D935D936D937C931397478150E06C
:1015600070E060E0742F66275527442744275527ED
:10157000662770780D911D912D913C911397402B0A
:10158000512B622B732B4D935D936D937C9313972B
:1015900088E090E01F910F91FF90EF90DF90CF9047
:1015A0000895EF92FF920F931F93CF93DF938C01D7
:1015B0007B01BC016E5F7F4FC7013EDFEC01B801CC
:1015C0006A5F7F4FC7018C0F9D1F36DFC80FD91F81
:1015D000B801665F7F4FC7018C0F9D1F2DDF8C0FF9
:1015E0009D1FDF91CF911F910F91FF90EF90089574
:1015F000EF92FF920F931F93CF93DF937C01EB0148
:101600000296CFDF8C01BE01680F791FC70140969B
:10161000C8DF800F911FDF91CF911F910F91FF9035
:10162000EF9008950F931F93CF93DF938C01EC01FC
:101630002796CE01DDDFD8019596ED91FC91CE0184
:10164000DF91CF911F910F9119948F929F92AF923A
:10165000BF92CF92DF92EF92FF92CF93DF93EC0194
:101660004A015B01DB01CA0147E1B595A795979552
:1016700087954A95D1F79927AA27BB270097A105F7
:10168000B10521F080589C4FAF4FBF4F188219828F
:101690001A82B501A40125E0440F551F661F771F6C
:1016A0002A95D1F74B83B501A40133E07595679571
:1016B000579547953A95D1F74C83B501A401EBE0D6
:1016C0007595679557954795EA95D1F74D83B5017F
:1016D000A401F3E17595679557954795FA95D1F76C
:1016E0004F706C017D0124E0CC0CDD1CEE1CFF1C56
:1016F0002A95D1F74C294E836C017D0134E0F59495
:10170000E794D794C7943A95D1F720E030E0A90147
:10171000C501B4010E94432387FD0EC0CF8288E03B
:1017200090E0DF91CF91FF90EF90DF90CF90BF904E
:10173000AF909F908F9008958C2D80688F83EFCF0E
:10174000EF92FF920F931F93CF93DF937C018B0156
:10175000FC014281538164817581C80176DFEC010F
:10176000F7014681578160857185C8018C0F9D1FE7
:101770006CDFC80FD91FF7014285538564857585D5
:10178000C8018C0F9D1F61DF8C0F9D1FDF91CF91D2
:101790001F910F91FF90EF900895EF92FF920F939A
:1017A0001F93CF93DF937C01EB010296C9DF8C017D
:1017B000BE01680F791FC7014096C2DF800F911FDD
:1017C000DF91CF911F910F91FF90EF900895CF92ED
:1017D000DF92EF92FF920F931F93CF93DF93EC0171
:1017E0000E942C17498D5A8D6B8D7C8D3FB7F894D4
:1017F0008091230390912403A0912503B0912603A7
:1018000026B5A89B05C02F3F19F00196A11DB11D5B
:101810003FBFBA2FA92F982F8827820F911DA11D96
:10182000B11DE2E0880F991FAA1FBB1FEA95D1F7EF
:10183000898F9A8FAB8FBC8F898D9A8DAB8DBC8D24
:10184000841B950BA60BB70B4E855F85688979893C
:10185000481759076A077B0758F4188EDF91CF9114
:101860001F910F91FF90EF90DF90CF900C9487190C
:10187000388D2B89321708F048C0E88D44E0E49F8A
:1018800090011124EC89FD89E20FF31F808391837D
:10189000A283B3834A815B816C817D810A851B852C
:1018A0002C853D856A017B01C01AD10AE20AF30A40
:1018B0008C159D05AE05BF0540F1CE80DF80E88424
:1018C000F9840C0D1D1D2E1D3F1D081719072A0731
:1018D0003B07D8F084179507A607B70748F0B7016C
:1018E000A60184179507A607B70710F4AC01BD0140
:1018F000E88D24E0E29FC0011124EE89FF89E80F02
:10190000F91F4083518362837383888D8F5F888F33
:10191000A5CF0F931F9310923F0987E08093400952
:1019200086E08093410980911C03809342091092C4
:101930003B099BE090933C099AE090933D0991E02C
:10194000980F90933E091092370992E090933809CE
:1019500093E09093390992E0980F90933A0910928E
:10196000330994E09093340995E09093350993E01E
:10197000980F9093360910922F0998E090933009B0
:1019800099E09093310994E0980F90933209109266
:101990002B099DE090932C099CE090932D0995E0F4
:1019A000980F90932E098A5F80931C0340E855E2BC
:1019B00060E070E087EA93E00E94B3034091810405
:1019C00050918204609183047091840480917F041B
:1019D000909180040E94B3031092F6081092F508CB
:1019E0001092F8081092F7081092FC081092FB0869
:1019F0001092FA081092F908E3ECF8E090E080E029
:101A000021913191232B09F044C0FC01EE0FFF1FFF
:101A1000ED53F74F24E534E0318320838C599F4FF9
:101A200090935704809356048DB188638DB980914B
:101A3000010188678093010184B1806F84B99D9A08
:101A40008FE399E0B7D98BE399E0B4D987E399E0C4
:101A5000B1D983E399E0AED98FE299E0ABD98BE2BB
:101A600099E0A8D910E000E022E040E850E061EC05
:101A700072E08DE59DE00E94F61D21E040E850E017
:101A80006DEC72E088E994E10E94F61D1F910F91C0
:101A9000089501968931910509F0B2CFC5CFFC01B7
:101AA000848195810C94BA22CF93DF93EC01F7DF08
:101AB000CE01DF91CF910C94BA22CF93DF93CDB7B3
:101AC000DEB7A1970FB6F894DEBF0FBECDBF8AE098
:101AD000C82ED12CE12CF12C8091560940E050E029
:101AE000BA01833050F0F894E0915909F0915A0905
:101AF0004085518562857385789480915609882345
:101B000051F0F894E0915909F0915A09808191813E
:101B1000A281B38178949A01AB014427552719A279
:101B20008E010F5D1F4FCA01B901A70196010E94E6
:101B30008D23605DF80162938F0121153105410508
:101B4000510589F7309761F001900020E9F731974E
:101B5000AF01401B510BB80187EA93E00E943604A5
:101B600042E050E06AED72E087EA93E00E943604BA
:101B70000E942C1760E084EF91E00E945C180E94A4
:101B800087198111A9CF0E94C118A6CF4F925F92E9
:101B90006F927F928F929F92AF92BF92CF92DF927D
:101BA000EF92FF920F931F93CF93DF93EC017B0192
:101BB0008A81FB0180838B8181838C8182838D81EB
:101BC00083833496412C512C320104E010E09F01B4
:101BD0002F5F3F4FCF010296DF011396A8010C5FE4
:101BE0001F4F8A809B80AC80BD80481459046A04D2
:101BF0007B04C8F4AA85BB85A40FB51F14974C912C
:101C000011962C91119712969C91129713968C9184
:101C100040832183928383838FEF481A580A680A8E
:101C2000780A3496D4CF4C8540834D85F9014083A2
:101C30002E85FC0120838F858C93F701E00FF11F27
:101C4000412C512C3201AF019F012F5F3F4FCF013B
:101C50000296DF0113960C5F1F4F8C849D84AE8427
:101C6000BF84481459046A047B04D8F4CF01841B50
:101C7000950BAC89BD89A80FB91F3C9111962C9189
:101C8000119712969C91129713968C913083218311
:101C9000928383838FEF481A580A680A780A349629
:101CA000D3CF4E8940834F89F9014083288DFC01B1
:101CB0002083898D8C93412C512C32018E899F89F0
:101CC000A88DB98D481659066A067B0678F552012B
:101CD000AA0CBB1CEC8DFD8DEA0DFB1DA081B18112
:101CE000FD0101900020E9F731976F01CA1ADB0A64
:101CF000A60170E060E0C701800F911F86D90C5FDC
:101D00001F4F8C8D9D8DA80EB91EF50160817181CC
:101D1000A601C701800F911F0E94C0240C0D1D1D3C
:101D2000FFEF4F1A5F0A6F0A7F0AC8CFC801DF9121
:101D3000CF911F910F91FF90EF90DF90CF90BF90C8
:101D4000AF909F908F907F906F905F904F9008958D
:101D5000EF92FF920F931F93CF93DF938C017B0140
:101D6000DC0112962C911297FB012193CF0113965F
:101D7000ED91FC91EF0109900020E9F72197CE1B2E
:101D8000DF0BAE0170E060E040D9D80113966D9191
:101D90007C91AE01C70105960E94C024CE01059634
:101DA000DF91CF911F910F91FF90EF900895CF9207
:101DB000DF92EF92FF920F931F93CF93DF936C010B
:101DC000EB01DC0112968C911297888313968C910B
:101DD000139789831496ED91FC91DF010D900020FB
:101DE000E9F78D01015011090E1B1F0BA80170E0CE
:101DF00060E0CE01029609D9F60164817581A801DF
:101E0000CE0106960E94C024C8010696F601A6815E
:101E1000B781FD0101900020E9F731977F01EA1AAF
:101E2000FB0AA70170E060E08C0F9D1FEED8065FF3
:101E30001F4FD60116966D917C91A701CE01800FA0
:101E4000911F0E94C0240E0D1F1DF601A085B185B3
:101E5000FD0101900020E9F731977F01EA1AFB0AA2
:101E6000A70170E060E0CE01800F911FCED80C5F1B
:101E70001F4FD60118966D917C91A701CE01800F5E
:101E8000911F0E94C024C701800F911FF601628537
:101E9000438534852585C80FD91F688349833A83D4
:101EA0002B830496DF91CF911F910F91FF90EF90BC
:101EB000DF90CF9008952F923F924F925F926F9252
:101EC0007F928F929F92AF92BF92CF92DF92EF92CA
:101ED000FF920F931F93CF93DF93CDB7DEB72E976B
:101EE0000FB6F894DEBF0FBECDBF8C016B01DB01D6
:101EF0008D909D90AD90BC90FC0182819381A481D6
:101F0000B58188159905AA05BB0570F4B401660F63
:101F1000771F660F771F828593850E94E423D8017F
:101F20001B969C938E931A97F80182829382A482C7
:101F3000B582C60140E050E0BA01A4E0EA2EF12CDF
:101F400098012A5F3F4FDC011596EC911597169684
:101F50004C901697512C712C612C3201552444243D
:101F60005E2A1496EC9114974E2A1796EC917E2ACD
:101F7000D7011701E4E02E0E311C71010496F8011F
:101F800082809380A480B580481559056A057B0539
:101F9000A8F446825782608671861497A284B3841F
:101FA000AA0DBB1DE4E0BE2EF90101900D92BA947A
:101FB000E1F74F5F5F4F6F4F7F4FC5CF84859585AA
:101FC000A685B78584159505A605B70570F4B201F9
:101FD000660F771F660F771F848995890E94E42317
:101FE000D80155969C938E935497F8014486558654
:101FF00066867786C601820D931D412C512C3201D5
:102000001C019801205F3F4FDC0111966C911197E4
:1020100012968C901297912CB12CA12C54019924DA
:102020008824962A6C91862A13966C91B62AB4E07D
:10203000EB0EF11CF80144855585668577854416BD
:10204000550666067706C0F4808A918AA28AB38A0A
:10205000BC0162197309A489B589A60FB71F64E092
:10206000F90101900D926A95E1F7BFEF4B1A5B0AF7
:102070006B0A7B0A0496C8CF86899789A08DB18D9B
:1020800088159905AA05BB0560F4B401660F771F92
:10209000848D958D0E94E423D8015D969C938E9348
:1020A0005C97F801868A978AA08EB18E412C512CBC
:1020B00032011801FAE12F0E311CF8018689978947
:1020C000A08DB18D481659066A067B0608F05CC0E3
:1020D000B6016E0D7F1DCE0101960E94D4079701B7
:1020E0002C5F3F4F3E872D8789809A80AB80BC80D4
:1020F000C901032E000CAA0BBB0BAC01BD01480D9E
:10210000591D6A1D7B1D49875A876B877C87F9019A
:10211000EC0DFD1D9F012C193D09B90190E080E0F7
:1021200029853A854B855C85621773078407950777
:1021300028F42191DF0112972C93ECCFED84FE84DB
:10214000E80CF91CF601EE0DFF1D319710828D850C
:102150009E8501978C0D9D1DD8015B969C938E9357
:102160005A97C201880F991F5C96ED91FC91E80F78
:10217000F91FD1018D919C9191838083BFEF4B1A00
:102180005B0A6B0A7B0A99CFC7012E960FB6F894AB
:10219000DEBF0FBECDBFDF91CF911F910F91FF909A
:1021A000EF90DF90CF90BF90AF909F908F907F90F7
:1021B0006F905F904F903F902F9008952F923F9295
:1021C0004F925F926F927F928F929F92AF92BF9247
:1021D000CF92DF92EF92FF920F931F93CF93DF93F3
:1021E000CDB7DEB7E0970FB6F894DEBF0FBECDBF18
:1021F0008C010E94E7062B013C01980129573B4FB7
:102200003E8F2D8FF90180819181A281B381A3013D
:102210009201281B390B4A0B5B0BDA01C901893F7C
:102220009A42A105B10510F035971082480148E89F
:10223000841A4BEF940AD4018D919C91892B79F0EB
:10224000F801E557FB4F80819181A281B38184150C
:102250009505A605B70518F4F401118210829801BE
:1022600020583B4F3A8F298FA80144585B4F5C8F11
:102270004B8F180154E1250E311CC8018E579B4F1E
:102280009AA389A3D801A057BB4FB8A7AFA3F80161
:10229000E157FB4FFAA7E9A75801F6E8AF1AFBEFA1
:1022A000BF0A2250310938A32F8FA80145575B4F31
:1022B0005CA74BA7D301C2014496A11DB11D8DA7F8
:1022C0009EA7AFA7B8ABD80112968D919C91DC0167
:1022D000ED91FC910284F385E02D19959C0197FD09
:1022E000FEC2E98DFA8D80819181820F931F9183C7
:1022F0008083D4014D915C91119747305105E1F4F1
:10230000EF8DF8A180819181AC014F5F5F4F5183C8
:102310004083800F911FDC0154962C93F50180813E
:102320009181019791838083892B69F688E090E001
:10233000D4018D939C93C7CF4115510509F03FC03F
:102340002F3F310589F481E090E0F401918380838F
:102350002DA53EA54FA558A9ABA5BCA52D933D9392
:102360004D935C931397AFCF0E94E70664197509EC
:1023700086099709663071058105910508F4A3CF98
:10238000F801EE57FB4F10828EEF9FEFE0960FB6ED
:10239000F894DEBF0FBECDBFDF91CF911F910F919B
:1023A000FF90EF90DF90CF90BF90AF909F908F9075
:1023B0007F906F905F904F903F902F9008954130A5
:1023C000510581F482E090E02E3F310571F11D92BC
:1023D0001C92E9A1FAA18081811175CFC8010E94E8
:1023E0009F0771CF4230510589F4D5012D933C935D
:1023F000EF8DF8A11182108283E090E0D4018D93DB
:102400009C93E98DFA8D318320835DCF4330510554
:1024100081F4322F2227D5018D919C911197280F9D
:10242000391F2D933C9384E090E0F40191838083E5
:102430004ACF4430510571F460E071E00E947A2384
:102440008F3F910519F485E090E072CFF40111827D
:10245000108239CF4530510571F4AB8DBC8D2D9371
:102460003C9386E090E0F40191838083A98DBA8D3E
:102470002D933C9328CF4630510591F4322F2227DB
:10248000EB8DFC8D80819181280F391F3183208352
:1024900087E090E08D939C93F5018081918144CFFA
:1024A0004830510509F00FCF1D921C9260E071E099
:1024B0000E947A238F3F910509F005CFAB8DBC8D2B
:1024C000ED91FC91309709F03CC1C8010E949F0733
:1024D0008AE092E09A8389831C821B828CED92E0D1
:1024E0009E838D8398878F839A8789871B861C8616
:1024F0001D861E866801BCEECB1ABBEFDB0A780195
:10250000EAEBEE1AEBEFFE0A26E1222E22E0322E53
:10251000D601AD90BC90A114B10409F46FC01A8A21
:10252000198A388A2F861E8A1D8A86E990E00E94C1
:102530001E229C8B8B8BFC0110828B569F4FDC01E3
:102540001C92F501858196819C838B8360817181CA
:102550004281CE010F960E9453089E838D83D6013F
:10256000ED91FC9183819481DC01ED91FC910480DB
:10257000F581E02D1995BC01CE010F960E9411083E
:1025800098878F83D601ED91FC9183819481DC0142
:10259000ED91FC910680F781E02D1995BC01CE01EB
:1025A0000F960E9411089A87898720E032E040E068
:1025B00050E02B873C874D875E87D601ED91FC91DB
:1025C00061857285D801ED91FC910190F081E02D3B
:1025D000AE014F5F5F4FC801199589899A896DEDEA
:1025E00072E08130910521F0029729F461EF72E0E9
:1025F000C8010E941304CE010F9651DAB2E0CB0E4F
:10260000D11CEC14FD0409F083CF96E1A92E92E0D1
:10261000B92EF701C080D180C114D10409F476C06D
:102620001A8A198AB88AAF861E8A1D8A86E990E0BE
:102630000E941E229C8B8B8BDC011C928B569F4F21
:10264000FC011082D60112968D919C9113979C8368
:102650008B8314966D917C91159716964C91CE01B3
:102660000F960E9453089E838D83F701808191818C
:10267000DC01ED91FC910480F581E02D1995BC0100
:10268000CE010F960E94110898878F83F7018081F1
:102690009181DC01ED91FC910680F781E02D199587
:1026A000BC01CE010F960E9411089A87898720E00D
:1026B00032E040E050E02B873C874D875E87D801B1
:1026C000ED91FC91C080D180F70180819181DC0186
:1026D000ED91FC910280F381E02D1995AE014F5FE1
:1026E0005F4FBC01C801F601199589899A896DED82
:1026F00072E08130910521F0029729F461EF72E0D8
:10270000C8010E941304CE010F96C9D9F2E0EF0E62
:10271000F11C8E149F0409F07CCFF801EE57FB4F9B
:1027200081E0808331964082518262827382AD8DD6
:10273000BE8D4D925D926D927C9213978FEF9FEFBD
:1027400025CEEA30F10509F0A3C082E292E09A8337
:1027500089831B821C821D821E821F821886198615
:102760001A860E94E706F801C084D184E284F384CB
:102770009B01AC012C193D094E095F0969017A01E1
:10278000B101CE0101960E94B209C701B60128EE3F
:1027900033E040E050E00E948D2369017A019B0103
:1027A000AC018B819C81AD81BE818C0D9D1DAE1DC8
:1027B000BF1D8B839C83AD83BE8360E472E48FE096
:1027C00090E00E946B23CF80D884E984FA84DC01F6
:1027D000CB018C0D9D1DAE1DBF1D8F839887A987D2
:1027E000BA870E94E706CF80D884E984FA8436E36A
:1027F000D31A35E6E30A34ECF30A28EE33E040E07E
:1028000050E00E948D232BA33CA34DA35EA39B010C
:10281000AC0160E472E48FE090E00E946B23A701BA
:102820009601261B370B480B590BCA01B901CB8007
:10283000DC80ED80FE8031E0C31AD108E108F108A8
:102840002BA13CA14DA15EA1C21AD30AE40AF50A4C
:1028500020E03AEC4AE95BE30E948D232C0D3D1DFC
:102860004E1D5F1DD8011C962D933D934D935C9397
:102870001F97F801608B718B828B938B0E94E70608
:10288000AD8DBE8D6D937D938D939C9313971BCDD2
:10289000E630F10549F4B1018FA198A50CDB81E088
:1028A000E9A5FAA580830FCDEB30F10521F4A9A1AC
:1028B000BAA11C9208CDE154FE4FEE0FFF1FE00FAE
:1028C000F11F80819181009709F4FDCCDC01ED912D
:1028D000FC910190F081E02DB1011995F4CCF80143
:1028E000EE57FB4F8081882301F17801BDE7EB1A99
:1028F000BBEFFB0AF70180819181A281B381A30123
:102900009201281B390B4A0B5B0BDA01C901853C8C
:102910009940A105B10548F0C8010E949F07D70161
:102920004D925D926D927C92139790E080E02ECD57
:102930008DE794E043DC90D260E082E390E0BCD38A
:10294000E6D48111F5CF1DD4F3CF1F920F920FB6AD
:102950000F9211240BB60F922F933F934F935F93D7
:102960006F937F938F939F93AF93BF93EF93FF9357
:1029700087EA93E00E94A904FF91EF91BF91AF9184
:102980009F918F917F916F915F914F913F912F9187
:102990000F900BBE0F900FBE0F901F9018951F92B7
:1029A0000F920FB60F9211240BB60F922F938F93A5
:1029B0009F93EF93FF93E091B703F091B803808169
:1029C000E091BD03F091BE0382FD1DC09081809116
:1029D000C0038F5F8F732091C103821741F0E09194
:1029E000C003F0E0E955FC4F958F8093C003FF9141
:1029F000EF919F918F912F910F900BBE0F900FBE73
:102A00000F901F9018958081F2CF1F920F920FB6F2
:102A10000F9211242F933F938F939F93AF93BF9364
:102A20008091280390912903A0912A03B0912B0350
:102A30003091270323E0230F2D3758F50196A11D70
:102A4000B11D209327038093280390932903A0931B
:102A50002A03B0932B038091230390912403A09128
:102A60002503B09126030196A11DB11D8093230378
:102A700090932403A0932503B0932603BF91AF91B5
:102A80009F918F913F912F910F900FBE0F901F90AC
:102A9000189526E8230F0296A11DB11DD2CF1F92D3
:102AA0000F920FB60F9211240BB60F922F933F93F4
:102AB0004F935F936F937F938F939F93AF93BF9346
:102AC000EF93FF938091520490915304009741F04B
:102AD000DC01ED91FC910190F081E02D67E019950A
:102AE000FF91EF91BF91AF919F918F917F916F91E6
:102AF0005F914F913F912F910F900BBE0F900FBEA2
:102B00000F901F9018951F920F920FB60F921124DD
:102B10000BB60F922F933F934F935F936F937F93D7
:102B20008F939F93AF93BF93EF93FF938091500444
:102B300090915104009741F0DC01ED91FC910190DE
:102B4000F081E02D66E01995FF91EF91BF91AF9173
:102B50009F918F917F916F915F914F913F912F91B5
:102B60000F900BBE0F900FBE0F901F9018951F92E5
:102B70000F920FB60F9211240BB60F922F933F9323
:102B80004F935F936F937F938F939F93AF93BF9375
:102B9000EF93FF938091460490914704009741F092
:102BA000DC01ED91FC910190F081E02D61E019953F
:102BB000FF91EF91BF91AF919F918F917F916F9115
:102BC0005F914F913F912F910F900BBE0F900FBED1
:102BD0000F901F9018951F920F920FB60F9211240D
:102BE0000BB60F922F933F934F935F936F937F9307
:102BF0008F939F93AF93BF93EF93FF938091440480
:102C000090914504009741F0DC01ED91FC91019019
:102C1000F081E02D60E01995FF91EF91BF91AF91A8
:102C20009F918F917F916F915F914F913F912F91E4
:102C30000F900BBE0F900FBE0F901F9018951F9214
:102C40000F920FB60F9211240BB60F922F933F9352
:102C50004F935F936F937F938F939F93AF93BF93A4
:102C6000EF93FF9380914E0490914F04009741F0B1
:102C7000DC01ED91FC910190F081E02D65E019956A
:102C8000FF91EF91BF91AF919F918F917F916F9144
:102C90005F914F913F912F910F900BBE0F900FBE00
:102CA0000F901F9018951F920F920FB60F9211243C
:102CB0000BB60F922F933F934F935F936F937F9336
:102CC0008F939F93AF93BF93EF93FF9380914C04A7
:102CD00090914D04009741F0DC01ED91FC91019041
:102CE000F081E02D64E01995FF91EF91BF91AF91D4
:102CF0009F918F917F916F915F914F913F912F9114
:102D00000F900BBE0F900FBE0F901F9018951F9243
:102D10000F920FB60F9211240BB60F922F933F9381
:102D20004F935F936F937F938F939F93AF93BF93D3
:102D3000EF93FF9380914A0490914B04009741F0E8
:102D4000DC01ED91FC910190F081E02D63E019959B
:102D5000FF91EF91BF91AF919F918F917F916F9173
:102D60005F914F913F912F910F900BBE0F900FBE2F
:102D70000F901F9018951F920F920FB60F9211246B
:102D80000BB60F922F933F934F935F936F937F9365
:102D90008F939F93AF93BF93EF93FF9380914804DA
:102DA00090914904009741F0DC01ED91FC91019074
:102DB000F081E02D62E01995FF91EF91BF91AF9105
:102DC0009F918F917F916F915F914F913F912F9143
:102DD0000F900BBE0F900FBE0F901F901895FC0127
:102DE000DB010FB6F8940F9240914B0350914C03C6
:102DF0002D913C9111972F3F3207E1F08181928113
:102E000060914D037081761719F048175907C0F487
:102E1000481B590B4217530788F4241B350B2D937D
:102E20003C9380914D03808380914B0390914C03A0
:102E30009283818380E00F900FBE08951D921C92B3
:102E400081E0F9CF0FB6F8940F9280914B039091E7
:102E50004C030F900FBE0895809148038F5F8093BD
:102E6000480308950FB6F8940F92FC01928D0F90CD
:102E70000FBE81E0911180E00895CF93DF939C0114
:102E8000FB01DC011196CD91DC91D383C2838C814F
:102E90009D81958384838C819D81DC0113967C9335
:102EA0006E9312977D836C8331872087F90180812F
:102EB0008F5F8083DF91CF910895CF93DF93FC01E3
:102EC000A085B1858281938124813581EC013D8388
:102ED0002C83C481D5819B838A8311968D919C918B
:102EE00012978E179F0721F41296DC93CE931197B9
:102EF000118610868C9181508C938C91DF91CF91AB
:102F000008950F931F93CF93DF93DC011596ED91F6
:102F1000FC91C681D7818E01045F1F4FC801CDDFB0
:102F200080914803811123C00A501109C801C5DFEF
:102F30008E899091A303981710F48093A303B9E0AE
:102F40008B9FC0011124B80181589C4F96DFE091FE
:102F50001A03F0911B039E898689891760F481E02A
:102F600080932003DF91CF911F910F910895B801B5
:102F700084E693E0EBCF80E0F5CFEF92FF920F93E2
:102F80001F93CF93DF93EC010FB6F8940F921E8D31
:102F90007C0181E1E80EF11C01E01116D4F08FEF05
:102FA0008E8F0F900FBE0FB6F8940F921D8D7E017D
:102FB00088E0E80EF11C01E01116ACF08FEF8D8F68
:102FC0000F900FBEDF91CF911F910F91FF90EF9067
:102FD00008958989882319F3C70193DF811100932C
:102FE00020031150DACF8885882341F3C70189DF98
:102FF0008111009320031150DFCF0F931F93CF93C4
:10300000DF938C01FB0180819181D80113968F3F62
:103010009807F1F4E801AF81B88512968D919C91E3
:10302000139793838283EC01FD83EC83B583A483A0
:103030001396FC93EE93129711870087F801808115
:103040008F5F8083DF91CF911F910F910895D901F8
:1030500012962D913C911397E9014881598184176B
:103060009507A8F7DACFFC01738362839187808785
:103070004617570788F0421B530B848595854817E0
:103080005907C0F4BF016E5F7F4F80912C03909170
:103090002D03B3DF80E008954217530718F4621739
:1030A000730740F4BF016E5F7F4F80912E039091B4
:1030B0002F03EFCF81E00895FF920F931F93CF93DB
:1030C000DF93EC01F62E00914B0310914C0380919D
:1030D0001A0390911B030296F0DECF3FDC0781F4C8
:1030E000FF2071F060911A0370911B036E5F7F4F98
:1030F00082E593E0DF91CF911F910F91FF90BDCEBC
:10310000C00FD11FE0911A03F0911B03D383C28338
:1031100060911A0370911B03C017D10760F480916E
:103120004E0390914F036E5F7F4FDF91CF911F91C0
:103130000F91FF9062CF80915003909151036E5F89
:103140007F4F5BDF8091440390914503C817D907F7
:1031500020F4D0934503C0934403DF91CF911F9196
:103160000F91FF900895FC010396928381832FEFC6
:103170003FEF3483238396838583908787831082F0
:1031800008950F920FB6F8940F920BB60F920CB6EB
:103190000F921F9211242F923F924F925F926F9243
:1031A0007F928F929F92AF92BF92CF92DF92EF92D7
:1031B000FF920F931F932F933F934F935F936F93C0
:1031C0007F938F939F93AF93BF93CF93DF93EF93AF
:1031D000FF93A0911A03B0911B030DB60D920EB68A
:1031E0000D9280914803882321F081E08093200391
:1031F0005FC010922003A0911A03B0911B03E091CD
:103200001A03F0911B032D913C918789908D8217B1
:103210009307A8F080911A0390911B0380911A03E1
:1032200090911B03279A2F9A2FEF87EA91E621505E
:1032300080409040E1F700C000001F9AF5CF209138
:10324000A30389E001C02150422F50E0849FF00188
:10325000859FF00D1124E158FC4F9081992399F33B
:10326000A181B28112960D90BC91A02DB283A18351
:10327000289FC00111248E579C4FA817B90729F425
:1032800012968D919C919283818389E0849FF001B5
:10329000859FF00D1124E158FC4F0180F281E02D53
:1032A0008681978190931B0380931A032093A30335
:1032B000A0911A03B0911B03CD91CDBFDD91DEBF6C
:1032C000FF91EF91DF91CF91BF91AF919F918F913E
:1032D0007F916F915F914F913F912F911F910F912E
:1032E000FF90EF90DF90CF90BF90AF909F908F9026
:1032F0007F906F905F904F903F902F901F900F9016
:103300000CBE0F900BBE0F900FBE0F9008957F92D2
:103310008F929F92AF92BF92CF92DF92EF92FF92E5
:103320000F931F93CF93DF930FB6F8940F92809172
:10333000480381508093480380914803882389F093
:1033400080E00F900FBEDF91CF911F910F91FF9002
:10335000EF90DF90CF90BF90AF909F908F907F9035
:1033600008958091A603882359F3D0E0C0E029E0B6
:10337000F22EEE24E39426C0E0916903F0916A03F3
:10338000C681D781CE010C9698DD8E010E5F1F4F4E
:10339000C80193DD8E899091A303981710F4809350
:1033A000A3038F9DC0011124B80181589C4F65DD96
:1033B000E0911A03F0911B039E898689981710F0FB
:1033C000E0922003809164038111D6CFCD2B11F0C0
:1033D0000E94F306E0901E03F0901F03E114F10435
:1033E00009F4ACC089E0A82E77247394CC24CA9445
:1033F000DC2C8091480381118FC0C0914B03D09188
:103400004C032196D0934C03C0934B032097B9F4FF
:10341000809150039091510320914E0330914F03BE
:10342000309351032093500390934F0380934E03A6
:1034300080914D038F5F80934D030E94F30680912E
:10344000440390914503B12CC817D90708F058C020
:10345000E0911A03F0911B03E689AE9EF00111245E
:10346000E158FC4F8081823010F0BB24B3948091EE
:103470002003811103C0BB2009F457C070922003C0
:1034800054C0E0915003F09151030580F681E02D86
:1034900006811781D80112968D919C91C817D90782
:1034A00028F49093450380934403D2CF4801B2E0BF
:1034B0008B0E911CC40101DDF80184899589892B4B
:1034C00019F0C8010C96F9DCD80156968C919091B0
:1034D000A303981710F48093A3038A9DC0011124BD
:1034E000B40181589C4FC9DCE0911A03F0911B0391
:1034F000D80156969C918689981710F0BB24B394F6
:10350000E0915003F091510380818111BACFD092A4
:103510004503C09244039CCF80911E0390911F03EA
:10352000019690931F0380931E03B1E0EB1AF108FC
:1035300009F05FCF10921F0310921E0380912003A9
:10354000882309F4FDCE1DDE81E0FBCEAF92BF9251
:10355000CF92DF92EF92FF920F931F93CF93DF935F
:1035600000D01F921F92CDB7DEB78C017B011D8268
:103570001C8280E0680128E0C20ED11C0FB6F894CE
:103580000F92F801228D938D291708F074C0D28C08
:10359000448D411156C080819181892B11F080E0CA
:1035A00009C0E480F580E114F10411F580E0F80130
:1035B00015821482D394F801D28E9189992319F03F
:1035C000C80141969EDC8111DCDD0F900FBE81E0C9
:1035D0000F900F900F900F900F90DF91CF911F9150
:1035E0000F91FF90EF90DF90CF90BF90AF90089534
:1035F000F70182A1815082A3268991A12917B1F2F6
:103600008111D4CF5701F2E0AF0EB11CC50155DCDA
:10361000F70181A1868B24E030E0281B3109358732
:1036200024879091A303981710F48093A303F9E0E3
:103630008F9FC0011124B50181589C4F1EDC81E091
:10364000B6CF50E0B701828193810E94C024F80177
:10365000848D22813381820F932F911D93838283E6
:10366000248135818217930708F499CF8081918155
:103670009383828394CF2C813D81232B21F40F905F
:103680000FBE80E0A5CF811109C080914D038983D1
:1036900080914B0390914C039B838A830F900FBEC4
:1036A000DBDB0FB6F8940F92F801858D8F3F09F49C
:1036B000158EF801868D8F3F09F4168E0F900FBE80
:1036C000BE016C5F7F4FCE01019689DB811123C063
:1036D0000FB6F8940F92F801928D838D0F900FBE64
:1036E000981315C0AC80BD8060911A0370911B03C4
:1036F000645F7F4FC60181DC61E0C501DDDCC8018C
:103700003CDC05DE811101C03CDD81E037CFC80122
:1037100034DCFDDDFACFC80130DCF9DDB2CFCF9368
:10372000DF9300D01F921F92CDB7DEB79C0180912E
:10373000490390914A030097B1F019827B836A8311
:103740003D832C832091A503BE016F5F7F4F211124
:1037500020914803FBDE0F900F900F900F900F9079
:10376000DF91CF91089580E0F6CFEF92FF920F9313
:103770001F93CF93DF93E0912E03F0912F0380816D
:10378000811113C080912C0390912D0390932F03EE
:1037900080932E03F0932D03E0932C03DF91CF91C0
:1037A0001F910F91FF90EF9008950580F681E02D15
:1037B00000811181C681D7817E0182E0E80EF11C73
:1037C000C7017BDBE889F989CE0119958A8982FFD7
:1037D000D2CF8C859D85800F911F0817190758F44B
:1037E0009B838A83D987C887B70180912E039091E4
:1037F0002F0303DCC0CFB801CE0191DFBCCF0F9205
:103800000FB6F8940F920BB60F920CB60F921F9250
:1038100011242F923F924F925F926F927F928F92DC
:103820009F92AF92BF92CF92DF92EF92FF920F934F
:103830001F932F933F934F935F936F937F938F9338
:103840009F93AF93BF93CF93DF93EF93FF93A09199
:103850001A03B0911B030DB60D920EB60D9213BE56
:10386000809148038111F6C080914B0390914C03E5
:10387000019690934C0380934B03009799F5209108
:1038800050033091510340914E0350914F03509398
:1038900051034093500330934F0320934E032091E4
:1038A0004D032F5F20934D03E0915003F09151039E
:1038B0002081211107C02FEF3FEF30934503209364
:1038C000440310C0E0915003F09151030580F6814C
:1038D000E02D0680F781E02D22813381309345036E
:1038E00020934403209144033091450382179307AA
:1038F00010F420E09BC020E019E0E0915003F0912B
:1039000051033081311107C08FEF9FEF9093450332
:10391000809344038BC0E0915003F09151030580E4
:10392000F681E02D0680F781E02D428153818417D6
:10393000950728F4509345034093440377C0AF01A3
:103940004E5F5F4FA285B38564817581E680F78005
:10395000EB01FD82EC82C681D7817B836A8311965D
:103960006D917C9112974617570721F41296DC93BC
:10397000CE931197138612863C9131503C933C9123
:10398000A489B5891097F9F066857785E088F18874
:10399000EB01FD82EC82C089D1897B836A83119619
:1039A000ED90FC901297BF01645F7F4FE616F7061B
:1039B00021F41296DC93CE931197158A148A3C91C8
:1039C00031503C933C91A6893091A3033A1710F4EF
:1039D000A093A3031A9FD0011124BD0161587C4F0D
:1039E0007B01DB011196CD91DC91D583C4836C8181
:1039F0007D81778366836C817D81DB0113965C9387
:103A00004E9312975D834C83F386E286E7013881FB
:103A10003F5F3883A0911A03B0911B0346895696E5
:103A20003C91431708F469CF21E067CFE0911A0376
:103A3000F0911B03E689D9E0ED9FF0011124E158D4
:103A4000FC4F8081823008F021E0809120038111B9
:103A50000EC00AC080911E0390911F03019690939F
:103A60001F0380931E036AC0222309F467C080915C
:103A70004803882321F081E0809320035FC01092E7
:103A80002003A0911A03B0911B03E0911A03F09157
:103A90001B032D913C918789908D82179307A8F085
:103AA00080911A0390911B0380911A0390911B033C
:103AB000279A2F9A2FEF67EA71E6215060407040F5
:103AC000E1F700C000001F9AF5CF2091A30389E021
:103AD00001C02150422F50E0849FF001859FF00DDE
:103AE0001124E158FC4F9081992399F3A181B2816F
:103AF00012960D90BC91A02DB283A183289FC00186
:103B000011248E579C4FA817B90729F412968D914E
:103B10009C919283818389E0849FF001859FF00DC1
:103B20001124E158FC4F0180F281E02D86819781BC
:103B300090931B0380931A032093A303A0911A036D
:103B4000B0911B03CD91CDBFDD91DEBFFF91EF9111
:103B5000DF91CF91BF91AF919F918F917F916F91A5
:103B60005F914F913F912F911F910F91FF90EF9097
:103B7000DF90CF90BF90AF909F908F907F906F908D
:103B80005F904F903F902F901F900F900CBE0F9022
:103B90000BBE0F900FBE0F900895CF93DF93EC01F3
:103BA0005BD9CE014BD4EC01B2DB209769F4279AA4
:103BB0002F9A2FEF80E792E0215080409040E1F76C
:103BC00000C000001F9AF5CFCE01DF91CF9108957C
:103BD000CF93DF93009739F0EC013ED9CE01CAD4E0
:103BE000DF91CF9194CBDF91CF9108957F928F9207
:103BF0009F92AF92BF92CF92DF92EF92FF920F937C
:103C00001F93CF93DF93982EA92E762E872E7A01BD
:103C1000B22ECA01C2DF6C01892B09F4C8C088E248
:103C200090E0BBDFEC01892B09F4BFC0D88ECF8AAE
:103C3000A70165EA70E0C601ACD621E0E21AF108FE
:103C4000EF89F88DEE0DFF1D672D782DCE01499679
:103C50009B01285F3F4FDB014D91BD01DC014D937E
:103C6000CD01AB0141505109DA014C91442319F0C7
:103C70006217730781F718A2BE8AB9A21AA21B861F
:103C80001A861D8A1C8AD987C88784E090E08B1920
:103C900091099D878C87DB8BCA8B1BA21CA21DA25E
:103CA0001EA21FA29082DF011197AC9211971C9265
:103CB00011971C92119780E88C9311971C92119781
:103CC0001C9211971C9257971C9211971C92B697B1
:103CD000F983E8830115110519F0F801D183C08338
:103CE0000FB6F8940F928091A6038F5F8093A6037E
:103CF00080911A0390911B03892B09F067C0D09320
:103D00001B03C0931A038091A603813039F58FE716
:103D100093E029DA88E893E026DA81E993E023DA70
:103D20008AE993E020DA86E793E01DDA8DE693E0F6
:103D30001ADA84E693E017DA8BE593E014DA82E589
:103D400093E011DA86E793E0909351038093500358
:103D50008DE693E090934F0380934E038091A403EC
:103D60008F5F8093A4038E899091A303981710F41A
:103D70008093A303F9E08F9FC0011124BE016E5F01
:103D80007F4F81589C4F79D80F900FBE8091A5032B
:103D9000882349F0E0911A03F0911B0396898E89DC
:103DA000981708F4EED981E003C0C60111DF8FEF48
:103DB000DF91CF911F910F91FF90EF90DF90CF9007
:103DC000BF90AF909F908F907F9008958091A503B2
:103DD0008111C4CFE0911A03F0911B039E8986895B
:103DE000981708F4BBCFD0931B03C0931A03B6CF28
:103DF00006DD1895CF93DF931092AA031092A903C2
:103E000088EE93E0A0E0B0E08093AB039093AC0326
:103E1000A093AD03B093AE032AE332E03093A8033E
:103E20002093A70325EC30E03093B4032093B30331
:103E300024EC30E03093B6032093B50320EC30E05F
:103E40003093B8032093B70321EC30E03093BA03EA
:103E50002093B90322EC30E03093BC032093BB03E2
:103E600026EC30E03093BE032093BD031092C003D4
:103E70001092C1031092C2031092C3032AE732E0EA
:103E80003093440920934309809345099093460950
:103E9000A0934709B093480980ED97E0A0E0B0E017
:103EA0008093490990934A09A0934B09B0934C0918
:103EB0008AE090E0A0E0B0E080934D0990934E0935
:103EC000A0934F09B093500984E398E0A0E0B0E0DC
:103ED0008093510990935209A0935309B0935409C8
:103EE00010925B0910925C0910925D0910925E09B4
:103EF00010925F0986E08093560988E190E09ED297
:103F0000EC01909358098093570988E190E096D28C
:103F100090935A098093590930E020E0FE01E20FA6
:103F2000F31F1082118212821382FC01E20FF31F31
:103F300010821182128213822C5F3F4F283131058B
:103F400069F785E180935509EFEFF2E02491E9EB01
:103F5000F2E084918823C1F090E0880F991FFC0162
:103F6000E657FD4FC591D491FC01E059FD4FA59155
:103F7000B4919FB7F8948881E22FE0958E238883CF
:103F80008C91E823EC939FBF83E499E090934904DC
:103F90008093480480916900836080936900E89A67
:103FA00080E792E090937E0480937D0487EA93E01B
:103FB0009093800480937F0480E091EEA0E0B0E0D5
:103FC0008093810490938204A0938304B09384042B
:103FD0001092FF0884E692E090930E0980930D09F9
:103FE0001092230910922409109225091092260993
:103FF00010922A0910922909E1E9F8E083EC98E08F
:10400000119211928E179F07D9F7E3ECF8E0119205
:10401000119288E0E53FF807D1F7E1E9F4E081E9A2
:1040200096E011928E179F07E1F7E1E9F6E0119211
:1040300088E0E139F807D9F710920F0910921009BA
:104040001092110910921209109218091092170972
:104050001092190910921A0910921B0910921C094A
:10406000109222091092210980E892E09093550461
:104070008093540488E592E090935C0480935B0401
:104080008CE492E090935E0480935D0410925F0450
:104090001092600410926104109262041092630402
:1040A00010926404109265041092660410926704E2
:1040B000109268041092690410926A0490936C0440
:1040C00080936B0410926D0410926E0410926F0432
:1040D0001092700410927104109272041092730482
:1040E0001092740410927504109276041092770462
:1040F0001092780482EB93E090937A048093790491
:1041000081E090E090937C0480937B0485E093E0D1
:10411000909359048093580410925A04DF91CF91E0
:104120000895789484B5826084BD84B5816084BD2F
:1041300085B5826085BD85B5816085BD80916E0045
:10414000816080936E001092810080918100826076
:1041500080938100809181008160809381008091B3
:1041600080008160809380008091B10084608093A2
:10417000B1008091B00081608093B0008091910087
:104180008260809391008091910081608093910082
:10419000809190008160809390008091A100826066
:1041A0008093A1008091A10081608093A100809103
:1041B000A00081608093A0008091210182608093A3
:1041C0002101809121018160809321018091200152
:1041D00081608093200180917A00846080937A00CE
:1041E00080917A00826080937A0080917A00816069
:1041F00080937A0080917A00806880937A00109290
:10420000C10020910402309105028FEF91E2821BE0
:10421000930B90930102809300020E94890C06E4A4
:1042200013E020E040EC50E06DE073E081E593E0C6
:10423000DDDC813009F0B5C00FB6F8940F928091A3
:10424000490390914A03892B09F04EC089E393E01A
:104250000E94B31880E393E00E94B31889E393E0CF
:1042600090932F0380932E0380E393E090932D038C
:1042700080932C0381E590E090DCEC01009781F1C4
:104280004F96998388838AE08B8F85E08C8F0FB659
:10429000F8940F92888199812B8D4C8DBC01249FBD
:1042A000600D711D11247D836C831A8E9B838A831C
:1042B0002150330B429FB001439F700D1124860F94
:1042C000971F9F838E838FEF8D8F8E8FCE010896E1
:1042D0000E94B318CE0141960E94B3180F900FBEF2
:1042E000D0934A03C09349030F900FBE80914903B6
:1042F00090914A03892B09F454C002E413E023E0AF
:1043000045E550E062E173E088E991E06FDC8130DF
:1043100009F047C0F8942FEF3FEF30934503209307
:1043200044038093A50310924C0310924B03A8956D
:1043300088E190EC0FB6F894A895809360000FBECA
:1043400090936000A0911A03B0911B03CD91CDBF53
:10435000DD91DEBFFF91EF91DF91CF91BF91AF91E2
:104360009F918F917F916F915F914F913F912F918D
:104370001F910F91FF90EF90DF90CF90BF90AF9083
:104380009F908F907F906F905F904F903F902F9075
:104390001F900F900CBE0F900BBE0F900FBE0F9092
:1043A00008950E94890C0E943605FDCF8AE792E0AD
:1043B000909344098093430990915509923091F16B
:1043C0009330A1F18EEE890F8430A0F587E1891B2F
:1043D000843001F1853011F18330C1F0E89882E03A
:1043E00090E0880F991FFC01EC5BFB4F118210825B
:1043F0008091570990915809009709F0BBD080919E
:10440000590990915A090097C1F0B4C0E99883E026
:1044100090E0E7CFEA9884E090E0E3CFEB9885E086
:1044200090E0DFCFEC9890E080E0DBCFED9881E08A
:1044300090E0D7CF8FEF9FEFD4CF08950F931F93C6
:10444000CF93DF938230910510F482E090E0E09109
:104450006209F091630930E020E0B0E0A0E030971D
:1044600099F42115310509F44AC0281B390B243071
:104470003105D8F58A819B816115710589F1FB01B0
:1044800093838283FE0111C0408151810281138197
:1044900048175907E0F04817590799F4109761F049
:1044A00012960C93129713961C933296CF01DF91BC
:1044B000CF911F910F9108950093620910936309A2
:1044C000F4CF2115310551F04217530738F0A901F7
:1044D000DB019A01BD01DF01F801C1CFEF01F9CF86
:1044E0009093630980936209CDCFFE01E20FF31F21
:1044F000819391932250310939832883D7CF20911A
:10450000600930916109232B41F42091020230911E
:1045100003023093610920936009209100023091D9
:1045200001022115310541F42DB73EB74091040237
:1045300050910502241B350BE0916009F09161094F
:10454000E217F307A0F42E1B3F0B2817390778F06A
:10455000AC014E5F5F4F2417350748F04E0F5F1FC9
:104560005093610940936009819391939FCFF0E04C
:10457000E0E09CCFCF93DF930097E9F0FC01329706
:1045800013821282A0916209B0916309ED0130E0BB
:1045900020E01097A1F420813181820F931F209198
:1045A0006009309161092817390709F061C0F0935B
:1045B0006109E0936009DF91CF910895EA01CE1778
:1045C000DF07E8F54A815B819E0141155105B1F78E
:1045D000E901FB83EA8349915991C40FD51FEC1778
:1045E000FD0761F4808191810296840F951FE90196
:1045F00099838883828193819B838A83F0E0E0E0C2
:1046000012968D919C9113970097B9F52D913C913D
:104610001197CD010296820F931F2091600930916E
:1046200061092817390739F6309751F51092630957
:1046300010926209B0936109A0936009BCCFD38343
:10464000C28340815181840F951FC817D90761F437
:104650004E5F5F4F88819981480F591F5183408376
:104660008A819B81938382832115310509F0B0CF24
:10467000F0936309E09362099ECFFD01DC01C0CF96
:1046800013821282D7CF03D008F481E00895990FE6
:104690000008550FAA0BE0E8FEEF16161706E8070C
:1046A000F907C0F012161306E407F50798F0621B2D
:1046B000730B840B950B39F40A2661F0232B242B02
:1046C000252B21F408950A2609F4A140A6958FEF21
:1046D000811D811D0895DB018F939F9348D0BF9169
:1046E000AF91A29F800D911DA39F900DB29F900D41
:1046F0001124089597FB072E16F4009406D077FD39
:1047000008D03FD007FC05D03EF4909581959F4F8F
:104710000895709561957F4F0895A1E21A2EAA1B06
:10472000BB1BFD010DC0AA1FBB1FEE1FFF1FA21761
:10473000B307E407F50720F0A21BB30BE40BF50B5E
:10474000661F771F881F991F1A9469F760957095E7
:10475000809590959B01AC01BD01CF010895EE0FAE
:10476000FF1F881F8BBF0790F691E02D19941DD075
:10477000A59F900DB49F900DA49F800D911D1124B5
:104780000895AA1BBB1B51E107C0AA1FBB1FA61798
:10479000B70710F0A61BB70B881F991F5A95A9F7EA
:1047A00080959095BC01CD010895A29FB001B39F63
:1047B000C001A39F700D811D1124911DB29F700D2A
:1047C000811D1124911D08954F925F926F927F92E7
:1047D0008F929F92AF92BF92CF92DF92EF92FF9211
:1047E0000F931F93CF93DF938C01009791F4CB012C
:1047F000DF91CF911F910F91FF90EF90DF90CF90BD
:10480000BF90AF909F908F907F906F905F904F90F0
:1048100015CEFC01E60FF71F9C0122503109E2176B
:10482000F30708F4AAC0D901CD91DC911197C617FE
:10483000D70718F1C530D10570F0CE01049786175F
:10484000970748F0C61BD70B2297C193D1936D935E
:104850007C93CF018FDEC801DF91CF911F910F9123
:10486000FF90EF90DF90CF90BF90AF909F908F9090
:104870007F906F905F904F9008955B01AC1ABD0AD6
:104880004C018C0E9D1EA0916209B0916309512CC0
:10489000412CF12CE12C109731F580916009909119
:1048A00061098815990509F05CC04616570608F09D
:1048B00058C08091000290910102009741F48DB799
:1048C0009EB74091040250910502841B950BE81796
:1048D000F90708F052C0F0936109E0936009F9010B
:1048E00071836083B8CF8D919C91119712966C90D3
:1048F000129713967C901397A815B90559F56C017A
:1049000042E0C40ED11CCA14DB0420F1AC014A19E8
:104910005B09DA011296159780F0628273825183E7
:104920004083D9016D937C93E114F10471F0D701B8
:104930001396FC93EE9312978ECF22968C0F9D1FA9
:10494000F90191838083F301EFCFF0936309E09342
:10495000620981CF4816590608F42C017D01D30164
:104960009ACFCB016BDD7C01009739F0AE01B80125
:1049700007D0C801FFDD87016ECF10E000E06BCFEC
:10498000FB01DC0102C001900D9241505040D8F76C
:104990000895DC0101C06D9341505040E0F7089547
:1049A00013E0CFE7D3E000E005C0802FFE01D7DEA3
:1049B0002196011DC038D10780E00807B1F7F894AF
:0249C000FFCF27
:1049C20000006409800000000000D70EBE08BB088A
:1049D200B8080000000053084F0D540D52080000A3
:1049E2000000F809B209AF09AC0900000000A80EE6
:1049F200630860085D0800000000CB04360463040D
:104A0200170594047204860400000000A00BD10A6A
:104A12000E080B0800000000CD0BF80A160713075A
:104A220000000000C60D5B0F5A0857080000000086
:104A32001D07DE100E0700000000E70B000000005B
:104A4200120B1907160713074D657373616765200B
:104A520066726F6D206465766963652064726F703B
:104A62007065643A206D657373616765206C61726D
:104A7200676572207468616E206275666665722E63
:104A8200006D6F746F72557064617465006E6F644F
:104A9200655370696E4F6E6365000D0A00466C6166
:104AA20073682072656164206E6F7420696D706C2A
:104AB20000427566666572206F766572666C6F7706
:104AC2002070756200636D645F76656C0049444CCA
:0A4AD2004500546D72205376630016
:020000023000CC
:10E000000D9489F10D94B2F10D94B2F10D94B2F129
:10E010000D94B2F10D94B2F10D94B2F10D94B2F1F0
:10E020000D94B2F10D94B2F10D94B2F10D94B2F1E0
:10E030000D94B2F10D94B2F10D94B2F10D94B2F1D0
:10E040000D94B2F10D94B2F10D94B2F10D94B2F1C0
:10E050000D94B2F10D94B2F10D94B2F10D94B2F1B0
:10E060000D94B2F10D94B2F10D94B2F10D94B2F1A0
:10E070000D94B2F10D94B2F10D94B2F10D94B2F190
:10E080000D94B2F10D94B2F10D94B2F10D94B2F180
:10E090000D94B2F10D94B2F10D94B2F10D94B2F170
:10E0A0000D94B2F10D94B2F10D94B2F10D94B2F160
:10E0B0000D94B2F10D94B2F10D94B2F10D94B2F150
:10E0C0000D94B2F10D94B2F10D94B2F10D94B2F140
:10E0D0000D94B2F10D94B2F10D94B2F10D94B2F130
:10E0E0000D94B2F141546D656761323536300041AF
:10E0F000726475696E6F206578706C6F72657220DE
:10E1000073746B3530305632206279204D4C530099
:10E11000426F6F746C6F616465723E004875683F52
:10E1200000436F6D70696C6564206F6E203D200048
:10E130004350552054797065202020203D20005FF9
:10E140005F4156525F415243485F5F3D2000415658
:10E1500052204C696243205665723D20004743437C
:10E160002056657273696F6E203D20004350552024
:10E1700049442020202020203D20004C6F7720663D
:10E18000757365202020203D20004869676820665F
:10E190007573652020203D200045787420667573D6
:10E1A00065202020203D20004C6F636B2066757336
:10E1B000652020203D20004D617220203720323024
:10E1C000313300312E362E3800342E332E350056A2
:10E1D00023202020414444522020206F7020636F70
:10E1E00064652020202020696E73747275637469E1
:10E1F0006F6E2061646472202020496E74657272B3
:10E20000757074006E6F20766563746F7200726A49
:10E210006D702020006A6D70200057686174207056
:10E220006F72743A00506F7274206E6F7420737541
:10E2300070706F72746564004D7573742062652030
:10E2400061206C6574746572002000577269747483
:10E25000696E672045450052656164696E672045B7
:10E26000450045452065727220636E743D00504F35
:10E27000525400303D5A65726F2061646472003FF1
:10E280003D43505520737461747300403D454550C3
:10E29000524F4D207465737400423D426C696E6B41
:10E2A000204C454400453D44756D70204545505215
:10E2B0004F4D00463D44756D7020464C415348001B
:10E2C000483D48656C70004C3D4C69737420492F83
:10E2D0004F20506F72747300513D51756974005234
:10E2E0003D44756D702052414D00563D73686F7707
:10E2F00020696E7465727275707420566563746FF0
:10E30000727300593D506F727420626C696E6B00BD
:10E310002A0011241FBECFEFD1E2DEBFCDBF01E046
:10E320000CBF12E0A0E0B2E0EEE1FDEF03E00BBFB6
:10E3300002C007900D92A030B107D9F712E0A0E01B
:10E34000B2E001C01D92AE30B107E1F70F9460F367
:10E350000D948DFE01E20EBF0FEF0DBF11241FBE05
:10E360000D9460F30D9400F020E030E040ED57E0B4
:10E3700005C0FA013197F1F72F5F3F4F2817390792
:10E38000C0F308959C01260F311DC901A0E0B0E043
:10E390002F5F3F4FABBFFC018791882361F08093D3
:10E3A000C6008091C00086FFFCCF8091C0008064D1
:10E3B0008093C000EACF08958DE08093C6008091DD
:10E3C000C00086FFFCCF8091C00080648093C000B5
:10E3D0008AE08093C6008091C00086FFFCCF8091C8
:10E3E000C00080648093C00008950F94C2F10F9420
:10E3F000DCF10895FC019081992359F09093C600B7
:10E400008091C00086FFFCCF8091C0008064809323
:10E41000C0003196992379F70895282F982F929567
:10E420009F70892F805D8A3308F0895F8093C600D2
:10E430008091C00086FFFCCF8091C00080648093F3
:10E44000C000822F8F70982F905D9A3308F0995FEB
:10E450009093C6008091C00086FFFCCF8091C000E1
:10E4600080648093C00008959C01FB01853691056E
:10E470001CF46330710594F0C90164E670E00F94F8
:10E480002EFE605D7F4F6093C6008091C00086FFC6
:10E49000FCCF8091C00080648093C0002B30310598
:10E4A00014F43297B4F0C90164E670E00F942EFEC4
:10E4B0006AE070E00F942EFE605D7F4F6093C600AF
:10E4C0008091C00086FFFCCF8091C0008064809363
:10E4D000C000C9016AE070E00F942EFEC0968093E0
:10E4E000C6008091C00086FFFCCF8091C000806490
:10E4F0008093C00008951F93182F8EE692EE60E07F
:10E500000F94C2F11093C6008091C00086FFFCCF2B
:10E510008091C00080648093C0000F94DCF11F9153
:10E5200008952F923F924F925F926F927F928F92B7
:10E530009F92AF92BF92CF92DF92EF92FF920F9392
:10E540001F93DF93CF93CDB7DEB762970FB6F894E2
:10E55000DEBF0FBECDBF382E622ECA01DB015C01CB
:10E560006D01772420E2222E2E010894411C511CBB
:10E570008BC081E0A81680E0B80681E0C80680E084
:10E58000D80628F0C601AA27BB270F940DF2BB2797
:10E59000AD2D9C2D8B2D0F940DF28A2D0F940DF225
:10E5A0002092C6008091C00086FFFCCF8091C00001
:10E5B00080648093C0009DE29093C6008091C0006B
:10E5C00086FFFCCF8091C00080648093C0002092C1
:10E5D000C6008091C00086FFFCCF8091C00080649F
:10E5E0008093C00019828601750188249924A1E0D6
:10E5F0003A1651F03A1620F0B2E03B1661F409C029
:10E600000BBFF701779007C0C7010F9477FE782EF4
:10E6100002C0F7017080872D0F940DF22092C60082
:10E620008091C00086FFFCCF8091C0008064809301
:10E63000C000872D8052F401EF70F0708F3520F408
:10E64000E40DF51D708204C0E40DF51D8EE280839B
:10E650000894E11CF11C011D111D0894811C911CE2
:10E6600090E18916910409F0C2CF80E190E0A0E02A
:10E67000B0E0A80EB91ECA1EDB1E198AC2010F9493
:10E68000FAF10F94DCF16A94662009F072CF629679
:10E690000FB6F894DEBF0FBECDBFCF91DF911F91B3
:10E6A0000F91FF90EF90DF90CF90BF90AF909F9031
:10E6B0008F907F906F905F904F903F902F90089534
:10E6C0002F923F924F925F926F927F928F929F9282
:10E6D000AF92BF92CF92DF92EF92FF920F931F9370
:10E6E000DF93CF93CDB7DEB7CD53D1400FB6F894BB
:10E6F000DEBF0FBECDBF01E20EBF0FEF0DBF94B75F
:10E70000F894A89514BE80916000886180936000A1
:10E7100010926000789493FF05C0E0910002F091A0
:10E7200001021995279A2F9A8091C00082608093E8
:10E73000C00080E18093C40088E18093C1000000A4
:10E74000EE24FF24870144E0A42EB12CCC24DD2448
:10E7500024C0C5010197F1F70894E11CF11C011DCB
:10E76000111D21E2E2162EE4F20620E0020720E06D
:10E77000120718F031E0C32ED12CC801B70127ECE5
:10E780003BE140E050E00F9441FE611571058105C9
:10E79000910519F485B1805885B98091C00087FD35
:10E7A00003C0C114D104A9F2A6014F5F5F4FC25E3E
:10E7B000DE4F59834883CE51D140C25EDE4F8881FF
:10E7C0009981CE51D140019711F00D9410FEC05D9A
:10E7D000DE4F19821882C053D14060E0C15DDE4F28
:10E7E0001882CF52D14088249924C35DDE4F19820C
:10E7F0001882CD52D140C05EDE4F188219821A8233
:10E800001B82C052D140CE5CDE4F188219821A8220
:10E810001B82C253D140EE24FF2487010BBFF701B6
:10E8200007911691C45CDE4F19830883CC53D14005
:10E830000D940BFEC25EDE4F28813981CE51D1404E
:10E840002130310509F52091C600C25EDE4F1982E4
:10E850001882CE51D14022C02F5F3F4F4F4F5F4FA4
:10E86000213082E138078AE7480780E0580780F0C6
:10E87000C45CDE4FE881F981CC53D140EF5FFF4F9C
:10E8800019F0EE27FF27099420E030E040E050E047
:10E890008091C00087FFE0CF2091C600C35DDE4FAE
:10E8A00048815981CD52D1404F5F5F4FC35DDE4FEC
:10E8B00059834883CD52D140213209F063C64A3092
:10E8C000510508F05FC60894811C911C53E0851621
:10E8D000910409F059C600E010E018C081E280936D
:10E8E000C6008091C00086FFFCCF8091C00080648C
:10E8F0008093C0002F5F3F4F2931310579F70F9486
:10E90000DCF10F5F1F4F0530110519F020E030E0FA
:10E91000E5CF10920A0210920B0210920C02109294
:10E920000D02109206021092070210920802109235
:10E930000902109202021092030210920402109235
:10E9400005028FEE90EE60E00F94F5F180E191EE1C
:10E9500060E00F94C2F18091C00087FFFCCF9091DE
:10E96000C600903608F09F759032B8F09093C600BC
:10E970008091C00086FFFCCF8091C00080648093AE
:10E98000C000A0E2A093C6008091C00086FFFCCF2B
:10E990008091C00080648093C000983409F4D7C18E
:10E9A0009934B8F4923409F459C1933458F490333B
:10E9B00019F1903308F4E3C59F33A1F1903409F0C5
:10E9C000DEC5BDC0953409F470C1963409F0D7C5D1
:10E9D00098C1923509F42BC2933538F49C3409F46C
:10E9E000F5C1913509F0CBC518C2963509F445C279
:10E9F000993509F0C4C567C483E792EE62E00F94CD
:10EA0000F5F110920602109207021092080210927D
:10EA1000090210920A0210920B0210920C0210923C
:10EA20000D0213C18FE792EE62E00F94F5F18FEEC5
:10EA300090EE60E00F94F5F181E291EE60E00F94CA
:10EA4000C2F187EB91EE60E00F94F5F180E391EE77
:10EA500060E00F94C2F184EE90EE60E00F94F5F167
:10EA60008FE391EE60E00F94C2F186E090E061E008
:10EA700070E00F9434F20F94DCF18DE591EE60E0DC
:10EA80000F94C2F189EC91EE60E00F94F5F18EE401
:10EA900091EE60E00F94C2F183EC91EE60E00F9490
:10EAA000F5F18CE691EE60E00F94C2F18EE10F94E7
:10EAB0000DF288E90F940DF281E00F940DF20F949E
:10EAC000DCF18BE791EE60E00F94C2F119E0E0E039
:10EAD000F0E010935700E4918E2F0F940DF20F94F5
:10EAE000DCF18AE891EE60E00F94C2F1E3E0F0E03F
:10EAF00010935700E4918E2F0F940DF20F94DCF1D8
:10EB000089E991EE60E00F94C2F1E2E0F0E0109349
:10EB10005700E4918E2F0F940DF20F94DCF188EAE8
:10EB200091EE60E00F94C2F1E1E0F0E01093570045
:10EB30001491812F0F940DF20F94DCF107CF8BE825
:10EB400092EE62E00F94F5F18BE492EE60E00F94A8
:10EB5000F5F10F94DCF100E010E019C0C8016F2D51
:10EB60000F947FFEFF2031F489E492EE60E00F9471
:10EB7000C2F10BC0F092C6008091C00086FFFCCFAE
:10EB80008091C00080648093C0000F5F1F4FC80158
:10EB900081519F41A0E0B0E0ABBFFC01F790BAE229
:10EBA000FB1621F0E2E000301E07C1F60F94DCF105
:10EBB0000F94DCF187E592EE60E00F94F5F10F948D
:10EBC000DCF1CC24DD2400E010E01EC0C8010F946D
:10EBD00077FEF82E882331F489E492EE60E00F94FA
:10EBE000C2F10BC08093C6008091C00086FFFCCFAD
:10EBF0008091C00080648093C000FE1419F00894D6
:10EC0000C11CD11C0F5F1F4FC80181519F41A0E063
:10EC1000B0E0ABBFFC01E790FAE2EF1621F022E092
:10EC20000030120799F60F94DCF10F94DCF182E6C4
:10EC300092EE60E00F94C2F1C60161E070E00F94C3
:10EC400034F20F94DCF10F94DCF110920202109276
:10EC50000302109204021092050278CE89E992EE26
:10EC600062E00F94F5F1279A2F9A16C02F9880E052
:10EC700090E0E0EDF7E03197F1F7019684369105E9
:10EC8000C1F72F9A80E090E0E0EDF7E03197F1F7DF
:10EC9000019684369105C1F78091C00087FFE6CFC9
:10ECA0008091C00087FFFCCF64C485EA92EE62E0E9
:10ECB0000F94F5F140910202509103026091040219
:10ECC0007091050281E020E10F9491F2809102029F
:10ECD00090910302A0910402B091050280509F4FD1
:10ECE000AF4FBF4F8093020290930302A0930402A0
:10ECF000B093050280509041A040B04008F426CE69
:10ED0000A4CF83EB92EE62E00F94F5F140910602FE
:10ED100050910702609108027091090280E020E1A1
:10ED20000F9491F28091060290910702A09108023F
:10ED3000B091090280509F4FAF4FBF4F80930602A2
:10ED400090930702A0930802B0930902FFCD80ECD4
:10ED500092EE62E00F94F5F183E792EE60E00F949B
:10ED6000F5F18FE792EE60E00F94F5F18BE892EE0B
:10ED700060E00F94F5F189E992EE60E00F94F5F10F
:10ED800085EA92EE60E00F94F5F183EB92EE60E09D
:10ED90000F94F5F180EC92EE60E00F94F5F187ECC2
:10EDA00092EE60E00F94F5F188ED92EE60E00F9442
:10EDB000F5F18FED92EE60E00F94F5F18AEE92EEB0
:10EDC00060E00F94F5F183E093EEBDCD87EC92EE19
:10EDD00062E00F94F5F181E40F947BF282E40F94EA
:10EDE0007BF283E40F947BF284E40F947BF285E45E
:10EDF0000F947BF286E40F947BF287E40F947BF20E
:10EE000088E40F947BF28AE40F947BF28BE40F94F6
:10EE10007BF28CE40F947BF299CD88ED92EE62E068
:10EE20000F94F5F1772473948824992409C48FED05
:10EE300092EE62E00F94F5F140910A0250910B02BC
:10EE400060910C0270910D0282E020E10F9491F22A
:10EE500080910A0290910B02A0910C02B0910D02D8
:10EE600080509F4FAF4FBF4F80930A0290930B0289
:10EE7000A0930C02B0930D0269CD8AEE92EE62E08F
:10EE80000F94F5F184EE90EE60E00F94F5F18FECC5
:10EE900091EE60E00F94F5F1662477244301CC5D98
:10EEA000DE4F19821882C452D140D401C301B695F5
:10EEB000A79597958795CA5DDE4F88839983AA8326
:10EEC000BB83C652D140CC5DDE4FA881B981C4520C
:10EED000D1401196CC5DDE4FB983A883C452D14096
:10EEE000CD0162E070E00F9434F2B0E2B093C6005E
:10EEF0008091C00086FFFCCF8091C0008064809329
:10EF0000C000EDE2E093C6008091C00086FFFCCF18
:10EF10008091C00080648093C000F0E2F093C6004E
:10EF20008091C00086FFFCCF8091C00080648093F8
:10EF3000C000CA5DDE4FE880F9800A811B81C6529D
:10EF4000D140BB27A12F902F8F2D0F940DF2CA5DBA
:10EF5000DE4F8881C652D1400F940DF2B0E2FB2EF5
:10EF6000F092C6008091C00086FFFCCF8091C00067
:10EF700080648093C0000DE30093C6008091C000C0
:10EF800086FFFCCF8091C00080648093C00010E2B7
:10EF90001093C6008091C00086FFFCCF8091C00016
:10EFA00080648093C0008BBEF3012791C65DDE4F65
:10EFB0002883CA52D140A22EBB24CC24DD2408943D
:10EFC000611C711C811C911C8BBEF3018791282E42
:10EFD0003324442455240894611C711C811C911C09
:10EFE0008BBEF3013791C55DDE4F3883CB52D140E4
:10EFF0000894611C711C811C911C8BBEF30147910C
